:100F0700456E74657220557220506173736B6579F5
:100F17000057656C636F6D650050617373776F720F
:100F270064204163636570740057726F6E67205069
:100F37006173736B657900504C5A20547279204164
:100F47006761696E002020524649442042617365FB
:100F570064202020200053656375726974792073BB
:100F6700797374656D2000506C61636520596F75E6
:100F77007220436172643A00596F757220494420A8
:100F87004E6F2E2069733A00323534303036413196
:100F97003439384200313730340041636365737345
:100FA700204772616E7465642000416469747961D9
:100FB700003136303036364244374142370034321A
:100FC700303200506572736F6E3200313630303612
:100FD70036323033303630003432303300506572B9
:100FE700736F6E33004163636573732044656E6985
:030FF7006564002E
:0312B500011D0018
:10120400E4FDFCC3ED9FEC9E5015E4FBFA0BBB0020
:0F121400010AEB64704A70F50DBD00010C80E417
:0112230022A8
:07118C001212667F647E0071
:10119300E4FDFCC3ED9FEE6480F8EC648098501589
:1011A300E4FBFA0BBB00010ABA04F8BBFBF50DBD67
:0511B30000010C80DECC
:0111B8002214
:10128C00D290C291D2927F057E00121193C292220B
:10126600A907E954F0F59012128CE9C454F0F590F0
:0312760002128CD5
:0E129C00C290D2927F057E00121193C2922260
:10127900A907E954F0F59012129CE9C454F0F590CD
:0312890002129CB2
:0B115E007F011212797BFF7A0F79A14C
:101169008B538A548955AB53AA54A955120B5DFF69
:10117900601012126674012555F555E43554F5547D
:0311890080E422DD
:10123E007F021212797F281212797F0E1212797F95
:04124E00010212790E
:10125200758921759850758DFDD28E758CB7758AFA
:04126200FED28C220A
:03000B00021224BA
:10122400C0E0B284308409E51EF58C851F8A8007EE
:0A123400E50AF58C850B8AD0E03244
:081086008F568E558D548C53DA
:10108E00755A00755902755890755746E4FBFA79F2
:10109E00C87842AF5AAE59AD58AC57120A01AB568A
:1010AE00AA55A954A8531208F8120ADC8E1E8F1FD7
:1010BE00AC1EAD1FE4120AA3A804A905AA06AB072D
:1010CE00AF5AAE59AD58AC57120803120ADC8E0A4D
:1010DE008F0BC374FF951FF51F74FF951EF51EC36E
:0C10EE0074FF950BF50B74FF950AF50AD2
:0110FA0022D3
:0B12AA003098FD85991DC298AF1D22F1
:100D4B007F011212797BFF7A0F79071211697FC02D
:100D5B00121279E4F552C3E5526480948440030285
:100D6B000F06C2A4D2A7D2A6D2A520A0147F3112FF
:100D7B00118CAF52055274192FF8763120A0458093
:100D8B00FB20A1147F3412118CAF52055274192F12
:100D9B00F8763420A12E80FB20A2147F3712118C01
:100DAB00AF52055274192FF8763720A21780FB200B
:100DBB00A3127F2A12118CAF52055274192FF87699
:100DCB002A30A3FDC2A5D2A7D2A6D2A420A0147FFD
:100DDB003212118CAF52055274192FF8763220A0B3
:100DEB004580FB20A1147F3512118CAF5205527434
:100DFB00192FF8763520A12E80FB20A2147F3812F4
:100E0B00118CAF52055274192FF8763820A2178027
:100E1B00FB20A3127F3012118CAF52055274192F85
:100E2B00F8763030A3FDC2A6D2A7D2A5D2A420A0BB
:100E3B00147F3312118CAF52055274192FF876337D
:100E4B0020A04580FB20A1147F3612118CAF5205D8
:100E5B005274192FF8763620A12E80FB20A2147F16
:100E6B003912118CAF52055274192FF8763920A212
:100E7B001780FB20A3127F2312118CAF52055274E3
:100E8B00192FF8762330A3FDC2A7D2A5D2A6D2A4E0
:100E9B0020A0177F4112118CAF52055274192FF8F5
:100EAB00764130A003020D6180F820A1177F42121A
:100EBB00118CAF52055274192FF8764230A10302F0
:100ECB000D6180F820A2177F4312118CAF5205528F
:100EDB0074192FF8764330A203020D6180F830A30A
:100EEB0003020D617F4412118CAF52055274192FFE
:0C0EFB00F8764430A303020D6180F82259
:1011E1007F011212797BFF7A0F79181211697FC082
:1011F1001212797BFF7A0F79201211697FC87E0064
:0312010002119344
:1011B900D2827F011212797BFF7A0F79301211697D
:1011C9007FC01212797BFF7A0F793E1211697FC8AD
:0811D9007E00121193C2822274
:100B8400D2AFD2A9C28212125212123E7BFF7A0F46
:100B9400794C1211697FC01212797BFF7A0F795D4B
:100BA4001211697F907E011211937F011212797BD9
:100BB400FF7A0F796E1211697FC0121279E4F5522F
:100BC400F5521212AA740C2552F8A6070552C3E571
:100BD400526480948C40EB740C2552F8E4F67FC880
:100BE400FE1211937F011212797BFF7A0F797F1223
:100BF40011697FC0121279E4F552740C2552F8E69B
:100C0400FF1212660552C3E5526480948C40EB12C5
:100C1400118F7556FF75570F75588F755900755A92
:100C24000C7B007A00790C1210FBEF7032120D4B22
:100C34007556FF75570F75589C755900755A047B86
:100C4400007A0079191210FBEF70601211E1121191
:100C54005E7FC01212797BFF7A0F79B1020CFC75AA
:100C640056FF75570F7558B8755900755A0C7B00A7
:100C74007A00790C1210FBEF7034120D4B7556FF8D
:100C840075570F7558C5755900755A047B007A005D
:100C940079191210FBEF70131211E112115E7FC06B
:100CA4001212797BFF7A0F79CA804D020D2975568D
:100CB400FF75570F7558D2755900755A0C7B007A19
:100CC40000790C1210FBEF7062120D4B7556FF7514
:100CD400570F7558DF755900755A047B007A0079EF
:100CE400191210FBEF703E1211E112115E7FC01257
:100CF40012797BFF7A0F79E41211697FCD7ECC7D66
:100D04002C7C401210867FE87E0312120412120417
:100D14007F007E007D407C411210867FE87E0312B6
:100D24001204020BAE1211B9020BAE7F011212793A
:100D34007BFF7A0F79EC121169D2827FC87E001290
:070D44001193C282020BAE05
:10080000020B48E86480F8E933E83360110460F0D3
:10081000ED33EC337009E8FCE9FDEAFEEBFF22045E
:1008200060DED3EB9FEA9EE99DE8C2E78CF0C2F759
:1008300095F0400CE8CCF8E9CDF9EACEFAEBCFFB25
:10084000120B1385D0F05804700320D5B3E8047060
:10085000075002B2D5020B5292D5EC0460F7E4CCFB
:10086000C0E0C398F8603B94186008400DD0E0FBEE
:10087000020B2AE4FBFAC9FC8028E830E406E4C94C
:10088000FBE4CAFCE830E305E4C9CACBFCE8540742
:100890006010F8C3E913F9EA13FAEB13FBEC13FC4D
:1008A000D8F130F52FC3E49CFCEF9BFFEE9AFEEDF0
:1008B00099FDD0E0FBEF4E4D4C701222DB03020B92
:1008C0004FEC2CFCEF33FFEE33FEED33FDED30E764
:1008D000EB020B2AEF2BFFEE3AFEED39FDD0E0FBE9
:1008E00050130BBB0003020B52ED13FDEE13FEEF92
:0808F00013FFEC13FC020B2ABC
:1008F800EC4D6011E8497017ED33EC3304600DE4FA
:10090800FCFFFEFD22E933E8330470F8020B4812BD
:100918000B1358046009E4CC2481500628500902BE
:100928000B52284003020B4FC0E0EB4A7044B980D9
:1009380006D0E0FB020B3EEF4E701CBD8008EBFFBB
:10094800EAFEE9FD80EBE98DF0A4FEE5F00209E19D
:10095800E9CDF9EAFEEBFFEF89F0A4FCE5F0CE89DA
:10096800F0A42EFFE435F0CD89F0A42DFEE435F097
:100978008067EF4E7005BD80D780C3EF8BF0A4ACC5
:10098800F0EE8BF0A42CFCE435F0F8EF8AF0A42C00
:10099800E5F038FCE433CB8DF0A42CFCE5F03BF813
:1009A800EE8AF0A42CFCE5F038F8E433CF89F0A403
:1009B8002CFCE5F038CF3400CE89F0A42FFFE5F009
:1009C8003EFEE433C98DF0A42EFEE5F039CD8AF061
:1009D800A42FFFE5F03EFEE43DFD33D0E0FB5007D9
:1009E8000BBB000F020B52EC2CFCEF33FFEE33FE77
:0609F800ED33FD020B2AA5
:1009FE00020B52EC5D046005E859047003020B48CB
:100A0E00120B13580460F6EC4860F2EC7004FDFE15
:100A1E00FF22C860DB2481C85009C39860025006CB
:100A2E00020B4F9850CAF582E9294B4A7005AB82EA
:100A3E00020B3E75F0007C1A7880C3EF9BEE9AEDA8
:100A4E0099400DC3EF9BFFEE9AFEED99FDE842F043
:100A5E00DC23ACF0D0E0FFD0E0FED0E0FDAB822096
:100A6E00E7101BEB60BAEC2CFCEF33FFEE33FEED20
:100A7E0033FD020B2AE803F830E705C0F075F000ED
:100A8E00EF2FFFEE33FEED33FD40B830E7C280AA04
:100A9E0075F020800E75F010800575F0087D007ED3
:100AAE00007F003392D530D503120B76EC33401015
:100ABE00EF33FFEE33FEED33FDEC33FCD5F0ED22DC
:0E0ACE00E5F0247EA2D513CC92E7CDCEFF2218
:100ADC00EDD2E7CD33EC3392D524814006E4FFFE12
:100AEC00FDFC22FCE4CFCECDCC24E0501174FF8071
:100AFC00EDC3CC13CCCD13CDCE13CECF13CF04700E
:070B0C00F030D5DE020B768C
:100B1300E9D2E7C933E833F892D5EDD2E7CD33EC28
:070B230033FC5002B2D522A1
:100B2A00EC30E7100FBF000C0EBE00080DBD00042C
:100B3A000BEB6014A2D5EB13FCED92E7FD2274FFD8
:100B4A00FCFDFEFF22E480F8A2D574FF13FC7D8031
:030B5A00E480EF45
:03000000020FFAF2
:0C0FFA00787FE4F6D8FD75815A021041A2
:100B5D00BB010689828A83E0225002E722BBFE0296
:090B6D00E32289828A83E49322C9
:0E0B7600C3E49FFFE49EFEE49DFDE49CFC2290
:1010FB008B538A548955AB56AA57A958120B5DFED0
:10110B00AB53AA54A955120B5DFF6E702BEF600DFC
:10111B00E55A155A7002155914455970037F002270
:10112B0074012555F555E43554F55474012558F5DE
:10113B0058E43557F55780BEAB53AA54A955120B3B
:10114B005DFFD3EE6480F8EF64809840037F01224B
:03115B007FFF22F1
:10100600020B84E493A3F8E493A34003F68001F271
:1010160008DFF48029E493A3F85407240CC8C333EB
:10102600C4540F4420C8834004F456800146F6DFBA
:10103600E4800B01020408102040809012B5E47E83
:10104600019360BCA3FF543F30E509541FFEE493AF
:10105600A360010ECF54C025E060A840B8E493A376
:10106600FAE493A3F8E493A3C8C582C8CAC583CAA1
:10107600F0A3C8C582C8CAC583CADFE9DEE780BE59
:0112B8000035
:00000001FF
