:100F2C00456E74657220557220506173736B6579D0
:100F3C000057656C636F6D650050617373776F72EA
:100F4C0064204163636570740057726F6E67205044
:100F5C006173736B657900504C5A2054727920413F
:100F6C006761696E002020524649442042617365D6
:100F7C006420202020005365637572697479207396
:100F8C00797374656D2000506C61636520596F75C1
:100F9C007220436172643A00596F75722049442083
:100FAC004E6F2E2069733A00323534303036413171
:100FBC003439384200313730340041636365737320
:100FCC00204772616E7465642000416469747961B4
:100FDC0000313630303636424437414237003432F5
:100FEC00303200506572736F6E32003136303036ED
:100FFC003632303330363000343230330050657294
:10100C00736F6E33004163636573732044656E695F
:03101C0065640008
:0312DA00011D00F3
:10122900E4FDFCC3ED9FEC9E5015E4FBFA0BBB00FB
:0F123900010AEB64704A70F50DBD00010C80E4F2
:011248002283
:0711B10012128B7F647E0027
:1011B800E4FDFCC3ED9FEE6480F8EC648098501564
:1011C800E4FBFA0BBB00010ABA04F8BBFBF50DBD42
:0511D80000010C80DEA7
:0111DD0022EF
:1012B100D290C291D2927F057E001211B8C29222C1
:10128B00A907E954F0F5901212B1E9C454F0F590A6
:03129B000212B18B
:0E12C100C290D2927F057E001211B8C2922216
:10129E00A907E954F0F5901212C1E9C454F0F59083
:0312AE000212C168
:0B1183007F0112129E7BFF7A0F79C6DD
:10118E008B538A548955AB53AA54A955120B5DFF44
:10119E00601012128B74012555F555E43554F55433
:0311AE0080E422B8
:101263007F0212129E7F2812129E7F0E12129E7F01
:041273000102129EC4
:10127700758921759850758DFDD28E758CB7758AD5
:04128700FED28C22E5
:03000B0002124995
:10124900C0E0B284308409E51EF58C851F8A8007C9
:0A125900E50AF58C850B8AD0E0321F
:0810AB008F568E558D548C53B5
:1010B300755A00755902755890755746E4FBFA79CD
:1010C300C87842AF5AAE59AD58AC57120A01AB5665
:1010D300AA55A954A8531208F8120ADC8E1E8F1FB2
:1010E300AC1EAD1FE4120AA3A804A905AA06AB0708
:1010F300AF5AAE59AD58AC57120803120ADC8E0A28
:101103008F0BC374FF951FF51F74FF951EF51EC348
:0C11130074FF950BF50B74FF950AF50AAC
:01111F0022AD
:0B12CF003098FD85991DC298AF1D22CC
:100D70007F0112129E7BFF7A0F792C12118E7FC099
:100D800012129EE4F552C3E552648094844003023B
:100D90000F2BC2A4D2A7D2A6D2A520A0147F3112B5
:100DA00011B1AF52055274192FF8763120A0458049
:100DB000FB20A1147F341211B1AF52055274192FC8
:100DC000F8763420A12E80FB20A2147F371211B1B7
:100DD000AF52055274192FF8763720A21780FB20E6
:100DE000A3127F2A1211B1AF52055274192FF8764F
:100DF0002A30A3FDC2A5D2A7D2A6D2A420A0147FD8
:100E0000321211B1AF52055274192FF8763220A068
:100E10004580FB20A1147F351211B1AF52055274E9
:100E2000192FF8763520A12E80FB20A2147F3812CE
:100E300011B1AF52055274192FF8763820A21780DD
:100E4000FB20A3127F301211B1AF52055274192F3B
:100E5000F8763030A3FDC2A6D2A7D2A5D2A420A096
:100E6000147F331211B1AF52055274192FF8763333
:100E700020A04580FB20A1147F361211B1AF52058E
:100E80005274192FF8763620A12E80FB20A2147FF1
:100E9000391211B1AF52055274192FF8763920A2C8
:100EA0001780FB20A3127F231211B1AF5205527499
:100EB000192FF8762330A3FDC2A7D2A5D2A6D2A4BB
:100EC00020A0177F411211B1AF52055274192FF8AB
:100ED000764130A003020D8680F820A1177F4212D0
:100EE00011B1AF52055274192FF8764230A10302A6
:100EF0000D8680F820A2177F431211B1AF52055220
:100F000074192FF8764330A203020D8680F830A3BF
:100F100003020D867F441211B1AF52055274192F8E
:0C0F2000F8764430A303020D8680F8220E
:101206007F0112129E7BFF7A0F793D12118E7FC0ED
:1012160012129E7BFF7A0F794512118E7FC87E00CF
:031226000211B8FA
:1011DE00D2827F0112129E7BFF7A0F795512118EE9
:1011EE007FC012129E7BFF7A0F796312118E7FC819
:0811FE007E001211B8C282222A
:100B8400D2AFD2A9C2821212771212637BFF7A0FFC
:100B9400797112118E7FC012129E7BFF7A0F7982B7
:100BA40012118E7F907E011211B87F0112129E7B6A
:100BB400FF7A0F799312118E7FC012129EE4F552C0
:100BC400F5521212CF740C2552F8A6070552C3E54C
:100BD400526480948C40EB740C2552F8E4F67FC880
:100BE400FE1211B87F0112129E7BFF7A0F79A412B4
:100BF400118E7FC012129EE4F552740C2552F8E651
:100C0400FF12128B0552C3E5526480948C40EB753D
:100C140056FF75570F7558B4755900755A0C7B00FB
:100C24007A00790C121120EF705F120D707556FF67
:100C340075570F7558C1755900755A047B007A00B1
:100C44007919121120EF703E1212061211837FC01F
:100C540012129E7BFF7A0F79D612118E7FCD7ECC35
:100C64007D2C7C401210AB7FE87E031212291212F5
:100C7400297F007E007D407C411210AB7FE87E031B
:100C8400121229020BAE020D4E7556FF75570F75E1
:100C940058DD755900755A0C7B007A00790C1211D5
:100CA40020EF7033120D707556FF75570F7558EAA3
:100CB400755900755A047B007A007919121120EFD6
:100CC40070131212061211837FC012129E7BFF7AD8
:100CD4000F79EF804C80737556FF75570F7558F771
:100CE400755900755A0C7B007A00790C121120EFAB
:100CF400705E120D707556FF75571075580475594E
:100D040000755A047B007A007919121120EF703AA9
:100D14001212061211837FC012129E7BFF7A107981
:100D24000912118ED284C2857F2C7E011211B8C2A1
:100D340084C2857F641E1211B8C284D2857F2C0EB2
:100D44001211B8C284C285020BAE1211DE020BAEC0
:100D54007F0112129E7BFF7A10791112118ED282BA
:0C0D64007FC87E001211B8C282020BAEE4
:10080000020B48E86480F8E933E83360110460F0D3
:10081000ED33EC337009E8FCE9FDEAFEEBFF22045E
:1008200060DED3EB9FEA9EE99DE8C2E78CF0C2F759
:1008300095F0400CE8CCF8E9CDF9EACEFAEBCFFB25
:10084000120B1385D0F05804700320D5B3E8047060
:10085000075002B2D5020B5292D5EC0460F7E4CCFB
:10086000C0E0C398F8603B94186008400DD0E0FBEE
:10087000020B2AE4FBFAC9FC8028E830E406E4C94C
:10088000FBE4CAFCE830E305E4C9CACBFCE8540742
:100890006010F8C3E913F9EA13FAEB13FBEC13FC4D
:1008A000D8F130F52FC3E49CFCEF9BFFEE9AFEEDF0
:1008B00099FDD0E0FBEF4E4D4C701222DB03020B92
:1008C0004FEC2CFCEF33FFEE33FEED33FDED30E764
:1008D000EB020B2AEF2BFFEE3AFEED39FDD0E0FBE9
:1008E00050130BBB0003020B52ED13FDEE13FEEF92
:0808F00013FFEC13FC020B2ABC
:1008F800EC4D6011E8497017ED33EC3304600DE4FA
:10090800FCFFFEFD22E933E8330470F8020B4812BD
:100918000B1358046009E4CC2481500628500902BE
:100928000B52284003020B4FC0E0EB4A7044B980D9
:1009380006D0E0FB020B3EEF4E701CBD8008EBFFBB
:10094800EAFEE9FD80EBE98DF0A4FEE5F00209E19D
:10095800E9CDF9EAFEEBFFEF89F0A4FCE5F0CE89DA
:10096800F0A42EFFE435F0CD89F0A42DFEE435F097
:100978008067EF4E7005BD80D780C3EF8BF0A4ACC5
:10098800F0EE8BF0A42CFCE435F0F8EF8AF0A42C00
:10099800E5F038FCE433CB8DF0A42CFCE5F03BF813
:1009A800EE8AF0A42CFCE5F038F8E433CF89F0A403
:1009B8002CFCE5F038CF3400CE89F0A42FFFE5F009
:1009C8003EFEE433C98DF0A42EFEE5F039CD8AF061
:1009D800A42FFFE5F03EFEE43DFD33D0E0FB5007D9
:1009E8000BBB000F020B52EC2CFCEF33FFEE33FE77
:0609F800ED33FD020B2AA5
:1009FE00020B52EC5D046005E859047003020B48CB
:100A0E00120B13580460F6EC4860F2EC7004FDFE15
:100A1E00FF22C860DB2481C85009C39860025006CB
:100A2E00020B4F9850CAF582E9294B4A7005AB82EA
:100A3E00020B3E75F0007C1A7880C3EF9BEE9AEDA8
:100A4E0099400DC3EF9BFFEE9AFEED99FDE842F043
:100A5E00DC23ACF0D0E0FFD0E0FED0E0FDAB822096
:100A6E00E7101BEB60BAEC2CFCEF33FFEE33FEED20
:100A7E0033FD020B2AE803F830E705C0F075F000ED
:100A8E00EF2FFFEE33FEED33FD40B830E7C280AA04
:100A9E0075F020800E75F010800575F0087D007ED3
:100AAE00007F003392D530D503120B76EC33401015
:100ABE00EF33FFEE33FEED33FDEC33FCD5F0ED22DC
:0E0ACE00E5F0247EA2D513CC92E7CDCEFF2218
:100ADC00EDD2E7CD33EC3392D524814006E4FFFE12
:100AEC00FDFC22FCE4CFCECDCC24E0501174FF8071
:100AFC00EDC3CC13CCCD13CDCE13CECF13CF04700E
:070B0C00F030D5DE020B768C
:100B1300E9D2E7C933E833F892D5EDD2E7CD33EC28
:070B230033FC5002B2D522A1
:100B2A00EC30E7100FBF000C0EBE00080DBD00042C
:100B3A000BEB6014A2D5EB13FCED92E7FD2274FFD8
:100B4A00FCFDFEFF22E480F8A2D574FF13FC7D8031
:030B5A00E480EF45
:0300000002101FCC
:0C101F00787FE4F6D8FD75815A02106657
:100B5D00BB010689828A83E0225002E722BBFE0296
:090B6D00E32289828A83E49322C9
:0E0B7600C3E49FFFE49EFEE49DFDE49CFC2290
:101120008B538A548955AB56AA57A958120B5DFEAA
:10113000AB53AA54A955120B5DFF6E702BEF600DD7
:10114000E55A155A7002155914455970037F00224B
:1011500074012555F555E43554F55474012558F5B9
:1011600058E43557F55780BEAB53AA54A955120B16
:101170005DFFD3EE6480F8EF64809840037F012226
:031180007FFF22CC
:10102B00020B84E493A3F8E493A34003F68001F24C
:10103B0008DFF48029E493A3F85407240CC8C333C6
:10104B00C4540F4420C8834004F456800146F6DF95
:10105B00E4800B01020408102040809012DAE47E39
:10106B00019360BCA3FF543F30E509541FFEE4938A
:10107B00A360010ECF54C025E060A840B8E493A351
:10108B00FAE493A3F8E493A3C8C582C8CAC583CA7C
:10109B00F0A3C8C582C8CAC583CADFE9DEE780BE34
:0112DD000010
:00000001FF
